:020000040800F2
:1000000070110020210200082502000827020008C4
:10001000290200082B0200082D0200080000000041
:100020000000000000000000000000002F02000897
:100030003102000800000000330200083502000809
:1000400037020008370200083702000837020008AC
:10005000370200083702000837020008370200089C
:10006000370200083702000837020008370200088C
:10007000370200083702000837020008370200087C
:10008000370200083702000837020008370200086C
:100090004725000837020008370200083702000829
:1000A000370200083702000837020008370200084C
:1000B000DB1A0008F31A00080B1B000837020008BF
:1000C000370200083702000837020008370200082C
:1000D00037020008EF0700087B090008ED2C000834
:1000E00061430008370200083702000837020008A1
:1000F00037020008370200083702000837020008FC
:1001000037020008370200083702000837020008EB
:1001100037020008370200083702000837020008DB
:1001200037020008370200083702000837020008CB
:1001300000F002F800F05FF80AA090E8000C82449A
:100140008344AAF10107DA4501D100F054F8AFF277
:10015000090EBAE80F0013F0010F18BFFB1A43F0A5
:10016000010318476CC500008CC500000A444FF01D
:10017000000C10F8013B13F0070408BF10F8014B06
:100180001D1108BF10F8015B641E05D010F8016B4B
:10019000641E01F8016BF9D113F0080F1EBF10F8AF
:1001A000014BAD1C0C1B09D16D1E58BF01F801CBD2
:1001B000FAD505E014F8016B01F8016B6D1EF9D555
:1001C0009142D6D37047000000230024002500266A
:1001D000103A28BF78C1FBD8520728BF30C148BFAA
:1001E0000B607047642908F04981002070471FB5F3
:1001F0001FBD10B510BD08F011FB1146FFF7F7FF4A
:1002000000F02AF808F02FFB03B4FFF7F2FF03BC5D
:1002100000F068FA30BF72B662B680F308887047A3
:1002200008480047FEE7FEE7FEE7FEE7FEE7FEE7D9
:10023000FEE7FEE7FEE7FEE703480449044A054BF4
:100240007047000031010008700B00207011002081
:10025000700D0020700D002008B5092000F0E9F9AC
:10026000482000F089F8022000F0CEF9012000F0CB
:10027000CBF900F0D5FD00F00DFE3948006818B943
:1002800001203849087002E000203649087001F06A
:1002900044F84FF4E131482000F03EFA4FF4165193
:1002A000242000F0F5FA4FF4E131242002F0A3FC01
:1002B00001F09AFA01F010FB01F07CFB01F0F0F87C
:1002C00001F03CFC07F0DDF907F0EFF9002141F601
:1002D0001F4001F007FA22480830006808B902F010
:1002E000CEFB4FF47A7000F07FF802F065FD02F06B
:1002F00075FF01F0A9FE00200623032202210090D1
:10030000012001F0CBFE002141F61F4001F0EAF987
:100310004FF47A7000F068F820E013480078012864
:1003200004D102F00DFC00200F4908700F4800783E
:1003300018B907F047FF07F055FC02F0BBF902F0CF
:100340005BFF00F0A8FC0120094908700020094962
:10035000087000BF064800780028FBD1DDE70000E8
:10036000308121425200002068000020040000205B
:1003700051000020500000204FF0E021096921F0D9
:1003800004014FF0E0221161C21700EB5272C2F378
:10039000C702234B1A701946097801EB4102C2EBE0
:1003A000C1114FF6FF7202EAC1011E4A1180704767
:1003B00001461B4A12784A434FF0E0235A6100225B
:1003C0009A6101221A6100BF4FF0E022106900F02B
:1003D00001021AB100F48032002AF5D000224FF059
:1003E000E0231A619A61704701460E4A12884A4317
:1003F0004FF0E0235A6100229A6101221A6100BF86
:100400004FF0E022106900F001021AB100F48032CE
:10041000002AF5D000224FF0E0231A619A6170475C
:10042000C8000020CA000020A34A0A400243A34B90
:100430001A6070470146072323EA010212029F4B0C
:100440001B1D18684FF6FF0318409D4B18431043BF
:100450009A4B1B1D186070472DE9F04107468846EE
:1004600014461D462846FFF7E5FFC5F1040007FACC
:1004700000F60F20284100EA0800064306F00F06A8
:10048000E21704EBD2625211920002F1E022D2F89C
:1004900000212146E31704EBD3635B11A4EB431C5B
:1004A000012303FA0CF31A432046E31704EBD3634A
:1004B0005B119B0003F1E023C3F800218148005D3C
:1004C00040EA06107F490855BDE8F08170B5044642
:1004D0000B46CE1701EB9676C6F38700CE1701EBDD
:1004E0009676B610A1EB8606B606350E764B9B695E
:1004F00043F00103744EB3614FEAB63353F8203032
:100500000F26AE40B343714E46F82030334653F8C1
:10051000203004FA05F61E436C4B43F820606C4B08
:100520001B6801268E403343694E336002F001039D
:1005300043B1674B0C331B6801268E403343644E36
:100540000C36336002F0020343B1614B08331E687E
:1005500001238B401E435E4B08331E6070BD00B507
:10056000002059490861C860142048610020886152
:10057000C8610846006840F001000860084640680D
:1005800054490840504948600846006852490840AC
:100590004D4908600846006820F48020086008463D
:1005A000406820F4FE0048600020886000214FF081
:1005B0000060FFF739FF00BD10B540480830006803
:1005C00040F004003D49083108603F48C06940F0F0
:1005D00080503D49C8614148406840F480703F49BF
:1005E00048600846006840F004000860084600685B
:1005F00040F002000860FFF70DFE10BD3048001DFE
:100600002E49091D08607047014649062E4A926925
:1006100042F001022C4B9A612C4A083A526822F0AF
:10062000E0622A4B083B5A601A4652680A435A60F5
:10063000704730B504460025FFF791FF2248006857
:1006400040F480302049086000BF1F480068400C1B
:100650000028FAD04FF480601B494860A01EC4B245
:100660000846406840EA844048600846406840F4D4
:10067000803048601A48006840F03200184908602D
:100680001148006840F080700F49086000BF0E48B4
:100690000068400E0028FAD00B48406840F0020085
:1006A0000949486005E008484068C0F3870505F03F
:1006B0000305022DF7D130BD80FFFF1F08ED00E0DC
:1006C0000000FA0500E400E00010024008000140CC
:1006D000000401400000FFF8FFFFF6FE007000403C
:1006E00000200240014600BF704700BFFA4A12884E
:1006F00002F04002002AF9D0C2B2F74B1B1D1A804B
:100700007047F649088000BFF449091F098801F0C5
:1007100040010029F8D070472DE9F05F05460E46EC
:1007200030010AF05BF98146ED4905FB01F00AF062
:1007300055F9824649460AF007F8074638460AF056
:1007400015F984B220460AF049F9834639460AF081
:100750008AFA82464FF083410AF088F981460AF00E
:1007600005F980464FF6FF7000EA041404EB080018
:1007700084B2DC48806940F00400DA4988610846A8
:10078000806940F480408861D748006820F47F6029
:10079000D54908600846006840F40B600860D148FD
:1007A000C06840F48040CF49C8600846C06820F463
:1007B0008040C860C948001D0480001D008842F2C6
:1007C0000C010843C549083108800846008840F4F8
:1007D000807008800846008840F0200008800223CE
:1007E000252201210020FFF737FEBDE8F09FBB481E
:1007F000001F008800F0200000283CD0BB49097889
:1008000051B9BB490978491CC9B2B94A11700A29C2
:1008100002DD0121B54A1170B0490988C8B2B54955
:10082000097869B9B4490978FE2909D1B349097829
:10083000FF2905D10121AF4A11700021B04A117082
:10084000AC49097801290FD1AE49AD4A12788854D4
:10085000AB490978491CAA4A117011460978082940
:1008600002D10021A34A1170A3490978A34A11704B
:10087000A149087000BF002070479749091D0880F2
:1008800000BF9549098801F040010029F9D070475F
:100890002DE9F05F05460E4630010AF09FF88146CB
:1008A0008F4905FB01F00AF099F88246494609F0A4
:1008B0004BFF074638460AF059F884B220460AF042
:1008C0008DF8834639460AF0CEF982464FF08341CF
:1008D0000AF0CCF881460AF049F880464FF6FF70DE
:1008E00000EA041404EB080084B27E48806940F0FA
:1008F00004007C4988610846C06940F40030C86142
:100900007948001F006820F47F407749091F08607C
:100910000846006840F40B400860734808300068DF
:1009200040F480607049083108606E48006940F406
:1009300080206C4908610846006920F48020086125
:10094000654808300480001D008842F20C0108430D
:1009500061490C3108800846008840F480700880A6
:100960000846008840F0200008800223262201214A
:100970000020FFF771FDBDE8F09F2DE9FF5F5648AD
:10098000008800F0200000287ED05348001D008819
:100990005D490860084600684B2803D101205B4987
:1009A00008700AE058480068492803D05648006893
:1009B0004A2802D10020554908705548007800287F
:1009C0004DD152480078D0B94F480068412809DB22
:1009D0004D480068482805DC4B48007840384D49B0
:1009E00008703CE048480068082804DC4648007865
:1009F0004849087033E00020464908702FE043481A
:100A0000007801282BD140480068432806D10020F7
:100A1000414908700120414908700FE03A480068D8
:100A2000472806D101203C49087000203B49087046
:100A300004E00020384908703849087032480068DE
:100A4000412803D030480068452805D12E48007859
:100A500040383049087002E000202E4908702A48CA
:100A600000687B2802D101202D49087026480068C3
:100A70007D2802D102202A490870294800780128DF
:100A80000CD12148007800E08AE02649264A1278F5
:100A9000885425480078401C234908702048007875
:100AA00002287DD11F48C078502803D101201F495A
:100AB0000870B3E01B48C078572803D101201C49B7
:100AC0000870ABE01748407823286AD016480078B1
:100AD0001849087068E000000044004004380140F4
:100AE00040420F0000100240040801406500002051
:100AF000D700002066000020D5000020D60000208E
:100B0000D40000205B000020D000002079000020ED
:100B10005200002002000020000000200100002000
:100B2000D800002030020020D900002067000020FB
:100B300068000020DA000020A6490978A64A127849
:100B4000881A09F0F0F9804642460B460020A34976
:100B500008F026FA04460D469F490978491EA04A26
:100B6000515CA1F1300009F0DEF9064622462B4621
:100B700009F040FA82468B469A48006809F04AFD1F
:100B800052465B46CDE9000108F04EFFCDE9020177
:100B900008F018FF934908608F480078401E01E074
:100BA00049E03BE08C4908708B4800780428C3DAA0
:100BB0008B484078303809282FD2DFE800F0050C48
:100BC00013181D22272C2D008648006809F0B2FE5C
:100BD0008549086021E08348006809F0ABFE83493D
:100BE00008601AE07F4800688149086015E07D4888
:100BF00000688049086010E07A4800687E49086013
:100C00000BE0784800687D49086006E07548006898
:100C10007B49086001E000E000BF00BF0020794987
:100C200008706C4908706C4908706E490860322180
:100C30006B4807F093FC002004B0BDE8F09F7248B9
:100C40000078F8B1714800685A281BD000206E4A1D
:100C500010706E480068012806DB6C4800680828A0
:100C600002DC6A4801780BE068480068412807DB2D
:100C700066480068482803DC644800784038C1B200
:100C800008467047614800685A2802D101205E4A30
:100C900010700020F5E72DE9F0415D48006800285C
:100CA00001DD002506E05A480068002801DA022527
:100CB00000E0012557480068002801DD002606E015
:100CC00054480068002801DA022600E00126524854
:100CD0000068002801DD002706E04F480068002872
:100CE00001DA022700E001274C48008800F50040A7
:100CF00084B2FF20FFF705FDFE20FFF702FD444907
:100D00000A68002A01DB114600E05142C8B2FFF731
:100D1000F8FC2846FFF7F5FC3E490A68002A01DB8B
:100D2000114600E05142C8B2FFF7EBFC3046FFF736
:100D3000E8FC39490A68002A01DB114600E051420B
:100D4000C8B2FFF7DEFC3846FFF7DBFC2012FFF7E6
:100D5000D8FCE0B2FFF7D5FCFF2001F041FFFE20F8
:100D600001F03EFF2A49D1F80080B8F1000F01DB05
:100D7000414601E0C8F10001C8B201F031FF284648
:100D800001F02EFF2349D1F80080B8F1000F01DBFC
:100D9000414601E0C8F10001C8B201F021FF304630
:100DA00001F01EFF1C49D1F80080B8F1000F01DBF3
:100DB000414601E0C8F10001C8B201F011FF384618
:100DC00001F00EFF201201F00BFFE0B201F008FF6E
:100DD000BDE8F081D9000020DA00002000002440A6
:100DE00030020020DC000020A8000020AC00002021
:100DF00094000020980000209C000020A00000200B
:100E0000A4000020D8000020E0000020D000002036
:100E1000080000200C00002010000020C40000206A
:100E20001748806940F00800154988611548006836
:100E300020F47000134908600846006840F4401030
:100E4000086010480830006840F400500D4908312F
:100E50000860704718B900210B4A11600FE00B4978
:100E60000968491C094A1160814208D1064909688C
:100E7000C943074AC2F8B4110021044A11607047FF
:100E800000100240040C0140B4812142E400002023
:100E9000008021425948806940F008005749886124
:100EA0005748006857490840554908600846006897
:100EB000554908435249086051480830006840F4D9
:100EC00080504F49083108600846006840F480406F
:100ED0000860704701464D48006828B94C480088B2
:100EE000401C4B4A108002E00020494A10804748CD
:100EF000006828B94748007810B90120454A1070A9
:100F000045480078B0B943480078012807D14348E4
:100F10000078401C414A107001203F4A10703F4841
:100F20000078022806D100203C4A10703C4A10800C
:100F30000220704735480068012804D10020354A56
:100F40001070354A10703548007801281CD134489B
:100F50000088401C324A10801046008888420ADD12
:100F60002B480088884206DA00202C4A10702C4A50
:100F700010800120DDE726480088884204DD00203B
:100F8000264A1070264A10800020D2E725480078B3
:100F900038B11E48006820B900202249087001209D
:100FA00070471A480068012801D11E4908700020C6
:100FB000F6E71D48008840B91448006828B91B4866
:100FC0000088401C1949088002E000201749088069
:100FD00016480088C82807DD012013490880002032
:100FE00012490880012070470F480088012802D16B
:100FF00000200D4908800020F5E7000000100240A5
:10100000040C0140FFFFF0F0000008083881214285
:10101000EE000020E8000020E9000020EA000020A7
:10102000EC000020F0000020F4000020F20000207E
:1010300010B50A461AB10123FE4C236002E00023DA
:10104000FC4C2360002116E00023FA4C343423606A
:1010500000F080031BB10123241D236003E0002363
:10106000F44C383423600123F24C343423604306BB
:10107000180E4B1CD9B20829E6DB0123ED4C236086
:1010800010BD30B500241CE004F1B001C8B200214D
:10109000FFF7CEFF00210846FFF7CAFF002110200E
:1010A000FFF7C6FF002508E0E34901EBC501085D35
:1010B0000121FFF7BDFF681CC5B2802DF4DB601C69
:1010C000C4B2082CE0DB30BD00B500218D20FFF755
:1010D000AFFF00211420FFF7ABFF0021AF20FFF787
:1010E000A7FF00BD00B500218D20FFF7A1FF002163
:1010F0001020FFF79DFF0021AE20FFF799FF00BDF4
:1011000030B500240CE0002506E00020CA4901EBC0
:10111000C5010855681CC5B2802DF6DB601CC4B241
:10112000082CF0DBFFF7ADFF30BDF0B5144600260C
:101130007F2801DC3F2900DDF0BD0B46CF1701EB16
:101140005777FF10C7F10707FAB2CF1701EB5777B0
:10115000FF10A1EBC707FDB2C5F107070123BB4094
:10116000DEB24CB1B44B03EBC0039B5C3343B24FD4
:1011700007EBC007BB5408E0AF4B03EBC0039B5C1D
:10118000B343AD4F07EBC007BB5400BFD4E72DE915
:10119000F04F80460C4615461E46A346A5F120009A
:1011A000C5B200273EE00C2E07D105EB4500A34950
:1011B00001EB800010F8079004E0A14800EB051057
:1011C00010F807904FF0000A26E009F0800028B1DF
:1011D00021464046099AFFF7A8FF09E0099808B997
:1011E000012000E00020024621464046FFF79DFF17
:1011F0004FEA49604FEA1069601CC4B2A4EB0B00CF
:10120000B04205D15C4608F1010000F0FF0806E09D
:101210000AF1010000F0FF0ABAF1080FD5DB00BFA8
:10122000781CC7B2B742BEDBBDE8F08F10B50246EE
:10123000012000E050430B1EA1F10104E1B2F9D1FD
:1012400010BD2DE9FF4F81B0074691461E460E9D09
:101250004FF0000A002439E0301B401EC1B20A20C2
:10126000FFF7E4FFB9FBF0F00A21B0FBF1F201FB5C
:101270001208BAF1000F16D1701EA04213DDB8F1AA
:10128000000F0ED10120AB4605EBDB71491001FBCD
:1012900004710090C8B22B4620220299FFF777FF15
:1012A00012E04FF0010A0120AB4605EBDB7149105B
:1012B00001FB04710090C8B208F13001CAB22B469C
:1012C0000299FFF764FF00BF601CC4B2B442C3DBE5
:1012D00005B0BDE8F08F78B505460E46144618E017
:1012E0007A2D03DD002506F11000C6B23A2E04DD8A
:1012F000002005460646FFF703FF012000902278F4
:101300000C2331462846FFF742FF05F10800C5B21D
:10131000641C20780028E3D178BD10B54948806965
:1013200040F01000474988610846806940F001009C
:10133000886145484068C0F3130043494860084647
:10134000406842490843404948600846006820F028
:101350000F0008600846006840F0020008603C4842
:10136000006840F480703A4908603648006A20F00E
:101370000100344908623748008820F001003549EF
:1013800008803348006820F48070314908600020EC
:1013900028493C3108606420FFF726F801202E49D7
:1013A000C1F8BC010021AE20FFF742FE0021D5208C
:1013B000FFF73EFE00215020FFF73AFE0021A82053
:1013C000FFF736FE00213F20FFF732FE0021D32039
:1013D000FFF72EFE00210846FFF72AFE00214020DD
:1013E000FFF726FE00218D20FFF722FE00211420AA
:1013F000FFF71EFE00212020FFF71AFE0021022029
:10140000FFF716FE0021A120FFF712FE0021C020E9
:10141000FFF70EFE0021DA20FFF70AFE002112205E
:10142000FFF706FE00218120FFF702FE0021EF20DA
:1014300014E00000800122426202002056AE000843
:10144000CAB2000800100240001001400000202233
:1014500000700040306C004000002242FFF7E8FDC1
:101460000021D920FFF7E4FD0021F120FFF7E0FD86
:101470000021DB20FFF7DCFD00213020FFF7D8FD45
:101480000021A420FFF7D4FD0021A620FFF7D0FD06
:101490000021AF20FFF7CCFDFFF732FE10BD0000AA
:1014A0006D48806940F004006B4988616B480068B2
:1014B00020F47000694908606748806940F4007052
:1014C000654988610846C06840F40070C8600846F5
:1014D000C06820F40070C8600846406820F44040AE
:1014E00048600846406840F4004048605C48006836
:1014F0005C4908405A490860084600680860084688
:10150000006820F480700860081D006820F0020068
:10151000091D08600846006820F46020086008463D
:10152000006840F4602008600846006840F48010BD
:1015300008600846006820F40060086048482830C9
:10154000006820F4700046492831086008460068A9
:101550000020086042480C30006820F470004049C8
:101560000C3108600846006840F4603008603C4870
:10157000001D006840F001003949091D0860084657
:10158000006840F00800086000BF3548001D006892
:1015900000F008000028F8D13148001D006840F034
:1015A00004002F49091D086000BF2D48001D006878
:1015B00000F004000028F8D1704701462848303078
:1015C000006820F01F00264A303210601046006884
:1015D000084310602248001D006840F48000204A43
:1015E000121D106000BF1E48001F006800F00200BE
:1015F0000028F8D01A484830006880B270472DE9BA
:10160000F04F87B00520FFF7D8FF019008F0A2FC4B
:1016100080464FF06632144B08F0ECFC0022134B6E
:10162000CDE9020108F0E6FC0022114BCDE90401EE
:1016300008F0E0FC064600220E4B08F0B1FA044622
:1016400000220D4B08F0ACFA824608F03DFC0690F3
:10165000069807B0BDE8F08F001002400008014076
:1016600004240140FFFFF00066660A4000002640A7
:10167000000059400000F03F0000B040564880692B
:1016800040F00800544988610846806940F0100025
:1016900088615248006820F00F00504908600846F1
:1016A000006840F0020008604C480C30006840F0D0
:1016B00001004A490C3108604948006820F47F0065
:1016C000474908600846006840F40810086008466A
:1016D000C06840F01000C8600846C06840F02000B4
:1016E000C860704700B503460A46FFF7C7FF3A488F
:1016F000806940F40050384988610846806940F0AC
:10170000100088613648406820F00F003449486076
:101710000846406840F00B0048600846006820F02A
:101720007F4008600846006840F03B4008602D4854
:101730000380001F02802B481438008840F4C0400A
:10174000284914390880081D008840F06000091DF0
:101750000880081F008840F06000091F08800846C4
:10176000008840F4006008800846008840F00800C7
:101770000880081D008840F00800091D0880081D29
:10178000008840F48070091D08800846008840F0F9
:10179000100008800846008840F0010008801148C9
:1017A0001830008840F400400E49183108804FF48A
:1017B00000400C492C3908800846008840F00100A0
:1017C00008804FF4E150074908310880091D08805E
:1017D000091D088000BD000000100240000C0140FF
:1017E000001001402C34014010B5CE48806940F013
:1017F0000100CC498861CC48406840F48070CA49F7
:101800004860C848C06940F00100C649C861084640
:10181000806940F0040088610846806940F0080053
:101820008861C248006820F07040C04908600846DE
:10183000006840F080400860BD48006820F47040B7
:10184000BB4908600846006840F4804008604FF0DB
:101850008040808940F001004FF080418881084637
:10186000808940F04000888101231C220321184612
:10187000FEF7F2FD00204FF0804108854FF6FF7023
:1018800088850846008820F4407008800846008853
:1018900020F0600008800846008B40F001000883BB
:1018A0000846008B40F4807008830846008C20F0C6
:1018B000020008840846008C20F0200008840020E4
:1018C00088840846008940F00300088108460088A3
:1018D00040F00100088010BD10B59248C06940F08A
:1018E00002009049C8610846806940F0080088619C
:1018F0008E48001F006820F07F408C49091F086057
:101900000846006840F0884008608A48008840F037
:101910000100884908800846008840F0400008809F
:1019200001231D2203211846FEF796FD0020814960
:101930001C3108804FF6FF70091D08807D480C3867
:10194000008820F440707B490C39088008460088E4
:1019500020F06000088077480C30008840F00100DB
:1019600074490C3108800846008840F48070088073
:1019700070481430008820F002006E49143108804D
:101980000846008820F0200008806A48001F008870
:1019900040F003006749091F08800020654918319D
:1019A000088064480C38008840F0010061490C3917
:1019B000088010BD10B55B48C06940F0040059496B
:1019C000C8610846806940F008008861584800688E
:1019D00020F07F40564908600846006840F0884083
:1019E00008605548008840F00100534908800846C7
:1019F000008840F04000088001231E220321184681
:101A0000FEF72AFD00204C491C3108804FF6FF707C
:101A1000091D088048480C38008820F44070464969
:101A20000C3908800846008820F060000880424891
:101A30000C30008840F001003F490C310880084616
:101A4000008840F4807008803B481430008820F003
:101A500002003949143108800846008820F020002F
:101A600008803548001F008840F003003249091FF4
:101A7000088000203049183108802F480C38008831
:101A800040F001002C490C39088010BD01460229A4
:101A900004D003290BD004291BD111E04FF0804260
:101AA000928C10B200224FF080439A8413E0214AB6
:101AB0001832128810B200221E4B18331A800AE026
:101AC0001D4A1832128810B200221B4B18331A809C
:101AD00001E0002000BF00BF70474FF08040008A47
:101AE0004FF08040008A20F001004FF080410882D2
:101AF00070471048001D00880E48001D008820F027
:101B000001000C49091D088070470B48001D008822
:101B10000948001D008820F001000749091D0880C0
:101B2000704700000010024000000140040801401E
:101B3000000C01400C0400400C080040F74880698C
:101B400040F00800F5498861F548006820F47F40BE
:101B5000F34908600846006840F44C50086070473C
:101B600010B5EF48006820F47040ED490860084661
:101B7000006840F4405008600120EA490860EA48E3
:101B8000D0F82C0108B9002010BD0120E549091F3B
:101B90000860FEF70DFC0020E349C1F8AC01E14804
:101BA0008038006808B10020EEE70120FEF700FC55
:101BB0000020DC49091F08600120E5E710B5D8487E
:101BC000006820F47040D64908600846006840F478
:101BD000405008600020D349091F0860D249C1F86D
:101BE000AC010120FEF7E4FB0120CE49091F08608B
:101BF000CD49C1F8AC01FEF7DBFB10BD10B50024E8
:101C0000C748006820F47040C5490860084600686D
:101C100040F4004008600120C2490860FEF7C8FB9C
:101C20000120C149C1F8A801FEF7C2FB0AE0601C0F
:101C3000C4B2322C03DDFFF7C1FF002010BD01202C
:101C4000FEF7B6FBB748803800680028EFD1B549E9
:101C5000091F08600120F1E710B50020B149091FF4
:101C60000860AF48006820F47040AD49086008463D
:101C7000006840F4405008600020AB49C1F8AC0156
:101C80000120FEF795FB0120A649091F0860FEF719
:101C90008FFB0020A449C1F8A80110BD10B5002099
:101CA000A049091F08609E48006820F470409C49C4
:101CB00008600846006840F44050086001209A49D6
:101CC000C1F8AC01FEF774FB01209649091F0860BA
:101CD000FEF76EFB00209449C1F8A80110BD70B555
:101CE00004468F48006820F470408D49086008461B
:101CF000006840F44050086000208A49091F0860CD
:101D0000002516E0E009874908606006040E0120FE
:101D1000FEF74EFB01208449C1F8A801FEF748FBFD
:101D200000208049091F08600120FEF741FB681C64
:101D3000C5B2082DE6DB70BD2DE9F04105460E4623
:101D400017469846FFF70CFF10B90120BDE8F08157
:101D50006906080EFFF7C3FFFFF750FF18B9FFF73A
:101D60002DFF0120F2E73046FFF7B9FFFFF746FFEE
:101D700000240BE018F80400FFF7B1FFFFF73EFF67
:101D800018B9FFF71BFF0020E0E7641CBC42F1DB41
:101D9000FFF714FF0020D9E770B50546002460481E
:101DA000006820F470405E4908600846006840F40E
:101DB00000400860002617E000205A49091F08600B
:101DC0000220FEF7F5FA01205749C1F8A801600684
:101DD000040E54488038006808B1601CC4B2022068
:101DE000FEF7E6FA701CC6B2082EE5DB15B1FFF768
:101DF00033FF01E0FFF752FF204670BD2DE9F041AF
:101E000006460F4614461D46FFF7AAFE10B90120EC
:101E1000BDE8F0817106080EFFF761FFFFF7EEFEE7
:101E200018B9FFF7CBFE0120F2E73846FFF757FF5E
:101E3000FFF7E4FEFFF794FE012101EB4601C8B273
:101E4000FFF74DFFFFF7DAFE0DE0012C04D1002073
:101E5000FFF7A2FF287003E00120FFF79DFF287025
:101E60006D1C601EC4B2002CEFD1FFF7A7FE00204E
:101E7000CEE770B505460E460024FFF771FE2846F2
:101E8000FFF72DFF641CFFF7B9FE3046FFF727FF71
:101E9000641CFFF7B3FEFFF763FE691CC8B2FFF7CF
:101EA0001EFF641CFFF7AAFE0020FFF775FF044623
:101EB000FFF784FE204670BD2DE9F04107468846B5
:101EC00015461E460024FFF74BFE3846FFF707FF76
:101ED000FFF794FE4046FFF702FFFFF78FFEFFF784
:101EE0003FFE791CC8B2FFF7FAFEFFF787FE00BF7E
:101EF0000DE0681EA04204D00120FFF74DFF3055D1
:101F000003E00020FFF748FF3055601CC4B2AC422C
:101F1000EFDBFFF753FE2046BDE8F08100100240E2
:101F2000040C0140AC812142008021422DE9F041A6
:101F300080460D4616461F460024FFF711FE404618
:101F4000FFF7CDFEFFF75AFE2846FFF7C8FEFFF762
:101F500055FE00BF06E0385DFFF7C1FEFFF74EFEFD
:101F6000601CC4B2B442F6DBFFF728FE0120BDE8D6
:101F7000F08170B505460E46144631462846FFF7F7
:101F800078FF2070012070BD37B504460D4602ABC6
:101F9000012229462046FFF7C9FF3EBD2DE9F8433F
:101FA0000746884614461D46089E6A4641463846FE
:101FB000FFF7DFFF28B3601CFF2101FA00F0C4F136
:101FC00008012944491EFF220A41104300F0FF097D
:101FD000C5F1080006FA00F0C6B2C4F107000641D8
:101FE0009DF8000000EA090000909DF800003043D1
:101FF00000909DF8002041463846FFF7C5FFBDE838
:10200000F8830020FBE7F8B506460F4614461D4648
:102010006A4639463046FFF7ACFF2DB10120A0409B
:102020009DF80010084305E00120A0409DF8001035
:1020300021EA0000C0B200909DF8002039463046E9
:10204000FFF7A2FFF8BD000010B51248806940F00C
:102050000800104988611048006820F070400E495F
:1020600008600846006840F0004008600A480830F0
:10207000006840F4004008490831086001220F213F
:102080001046FEF723FA0223282201211846FEF704
:10209000E3F910BD00100240040C01402DE9F047A7
:1020A00004460D4616461F46DDF820904FF0000806
:1020B00014B10DB106B117B90120BDE8F087601E5B
:1020C000C4B2681EC5B2701EC6B2781E87B2FE4882
:1020D000806940F00100FC4988610846806940F051
:1020E000080088610846C06940F00070C861F74880
:1020F000006820F0FF00F54908600846006840F0DD
:10210000B8000860F1480830006840F44070EF49BA
:1021100008310860EE48406840F48040EC4948606F
:102120000020EC4908600846006840F001000860A3
:1021300008E008F101001FFA80F8B8F1640F01DD32
:102140000220BAE7E348001D006800F00100002803
:10215000EFD0E0480068DF49086008460068086082
:102160000846006808600846006840F010000860F3
:102170000846006808600846006808600020D549E5
:102180001C3108600846006840EA8970086008460B
:10219000006840EA046008600846006840EA0550AC
:1021A00008600846006840EA064008600846006883
:1021B00038430860C748006820F00100C54908603E
:1021C00009E008F101001FFA80F84FF6F070804531
:1021D00001DD032071E7BF48001D006800F0010029
:1021E0000028EED1BC48006840F00100BA49086000
:1021F000B9481C30006820F00100B7491C31086064
:10220000B5480C30006840F00100B3490C3108605B
:10221000B148001D0068B049091D0860AE4814307F
:102220000068AD49143108600020AB4940310860B6
:102230000021A94844300160A7481C30006840F0E4
:102240000100A5491C310860A34800680020A2498C
:102250000860A0481430006840F002009D49143125
:1022600008600223142200210120FEF7F5F8002067
:1022700023E7F0B505460E46059C964808300068F1
:1022800000F0806008B1002111E092480830006839
:1022900000F0006008B1012109E08E4808300068B4
:1022A00000F0805008B1022101E0FF20F0BD0027BE
:1022B0008948803800EB011007601EB9C5F30A0594
:1022C0006D0502E025F06045ED008348803800EBA5
:1022D000011000682843804F803F07EB01173860EA
:1022E0007D48803800EB0110006840EA86077A4894
:1022F000803800EB011007607748803800EB011050
:10230000006840EA42077448803800EB011007601B
:1023100003F00F037048803800EB0110406820F094
:102320000F076D48803800EB011047606A4880381D
:1023300000EB011040681843674F803F07EB01171F
:102340007860E0790006A77940EA0740677940EABB
:102350000727207907436048803800EB0110C760E9
:10236000E0780006A77840EA0740677840EA07204F
:1023700027783843584F803F07EB0117B86056481D
:10238000803800EB0110006840F0010752488038A7
:1023900000EB01100760084688E70146002021B1E4
:1023A000012916D002293CD127E04A4A0832126896
:1023B00002F001021043474A0832126802F002029A
:1023C0001043444A0832126802F0806240EA126008
:1023D00029E0404A0832126802F0010210433D4AE7
:1023E0000832126802F0020210433A4A08321268B8
:1023F00002F0006240EA526015E0364A0832126884
:1024000002F001021043334A0832126802F002025D
:102410001043304A0832126802F0805240EA92605B
:1024200001E0052000BF00BF7047014629B92948D7
:102430000C30006800F003007047012905D12548E1
:102440001030006800F00300F6E70020F4E7F0B574
:10245000DDE90554204E503E06EB0016366806F0C6
:102460000406167016783EB91B4E503E06EB001659
:102470003668760D0E6006E0174E503E06EB0016ED
:102480003668F6080E60144E503E06EB00163668AD
:1024900006F002061E70104E503E06EB00167668DF
:1024A00006F00F062E700C4E503E06EB0016B66876
:1024B0002670094E503E06EB0016B668360A667066
:1024C000054E503E0AE0000000100240040C01409E
:1024D00000000140006400400066004006EB00166A
:1024E000B668360CA670C94E06EB0016B668360EF6
:1024F000E670C64E06EB0016F6682671C34E06EB74
:102500000016F668360A6671C04E06EB0016F668CD
:10251000360CA671BD4E06EB0016F668360EE67157
:1025200030B9BB4E366846F02006B94F3E6009E030
:10253000012807D1B64E361D366846F02006B44F46
:102540003F1D3E60F0BD10B58AB0B2A103C9CDE910
:10255000040102A806A907AB08AACDE9001009A941
:102560000020FFF774FF00240FE0072C04D102A81D
:10257000005DAA4908700AE002A8005D04A9095D8F
:10258000884200D003E0601CC4B2072CEDDD00BF20
:1025900040F221110998884207D1A048007820B163
:1025A0009F4802990160039941600AB010BDF8B5D7
:1025B00005460E46002433460022114640F20160D3
:1025C0000095FFF756FE074601E0601C84B23846CE
:1025D000FFF7E3FE072803D040F6FF708442F4DBE8
:1025E00040F6FF70844201DB0120F8BD0020FCE7CB
:1025F00010B586B004460020FFF717FF10B9002081
:1026000006B010BD02A803AB04AA05A9CDE90004D9
:102610000020FFF71CFF0598122805D19DF8100037
:1026200010B99DF80C0008B1002002909DF8080038
:10263000E6E7F8B505460E4600243346002211466B
:1026400040F201700095FFF714FE074601E0601CA0
:1026500084B23846FFF7A1FE072803D040F6FF708A
:102660008442F4DB40F6FF70844201DB0120F8BDB8
:102670000020FCE7F8B506460D460024082300229A
:10268000114630460095FFF7F4FD074601E0601C57
:1026900084B23846FFF781FE072803D040F6FF706A
:1026A0008442F4DB40F6FF70844201DB0120F8BD78
:1026B0000020FCE72DE9F84F5A480068002801DDAA
:1026C000002406E057480068002801DA022400E0F0
:1026D000012455480068002801DD002506E0524825
:1026E0000068002801DA022500E001254F48006853
:1026F000002801DD002606E04C480068002801DAC9
:10270000022600E001264A494A48006808F0AEF96E
:102710004949009007F0AAFF834608F027F987B2DD
:1027200043494648006808F0A1F94349009007F082
:102730009DFF834608F01AF91FFA80F83C4940488B
:10274000006808F093F93C49009007F08FFF83463A
:1027500008F00CF91FFA80F93A48808800F500402B
:102760001FFA80FA3848007808B9012000E00020FC
:102770003549087008460078B8B9381233490870EE
:102780004F704FEA2820887081F803804FEA292093
:10279000087181F805904FEA2A20887181F807A016
:1027A0004FF48070FFF766FF2DE01E49086800288F
:1027B00001DB014600E04142244A1170104644709A
:1027C00019490868002801DB014600E041421F4A20
:1027D00091701046C57015490868002801DB014654
:1027E00000E04142194A11711046467118480068CC
:1027F0000A2190FBF1F011468871C820C87140F29F
:102800000110FFF737FFBDE8F88F0000B06500400A
:102810000C6400400A0C0F13181E250063000020F2
:1028200053000020080000200C00002010000020B1
:102830000000C8427C0000200060EA4680000020C2
:1028400084000020D4010020F60000206900002050
:1028500048000020D048D1494860D14848607047BE
:10286000CE48006940F08000CC4908617047CB48F1
:10287000C16801F0010008B10120704701F00400B7
:1028800008B10220F9E701F0100008B10320F4E7D5
:102890000020F2E770B5044600BFFFF7E8FF0546E9
:1028A000012D00D006E00120FDF782FD601E84B2FC
:1028B000002CF2D100BF04B9FF25284670BD70B5C9
:1028C0000546002445F6FF70FFF7E4FF0446C4B94F
:1028D000B248006940F00200B0490861084645610D
:1028E000006940F04000086145F6FF70FFF7D2FF35
:1028F0000446012C05D0A948006920F00200A74930
:102900000861204670BD70B505460E46FF20FFF7F2
:10291000C1FF044694B9A148006940F001009F49F5
:1029200008612E80FF20FFF7B5FF0446012C05D07B
:102930009A48006920F0010098490861204670BD5E
:102940000146088870472DE9F04105460E461746B6
:10295000002407E036F814102846FFF7D4FFAD1C1A
:10296000601C84B2BC42F5DBBDE8F08130B50346A3
:102970000C461546002207E01846FFF7E1FF24F851
:1029800012009B1C501C82B2AA42F5DB30BD2DE91F
:10299000F05F80468A461746B8F1006F02D381483F
:1029A000804501D3BDE8F09FFFF754FFA8F1006B0D
:1029B0004FEA9B25CBF34809C9F50074A74200DC18
:1029C0003C464EE04FF0006101EB85208A147649C9
:1029D000FFF7CCFF00260BE009EB0600724931F847
:1029E00010004FF6FF71884200D003E0701C86B2E1
:1029F000A642F1DB00BFA6421BDA4FF0006101EBFB
:102A00008520FFF75CFF002608E03AF8160006EB89
:102A10000901654A22F81100701C86B2A642F4DB57
:102A20004FF0006101EB85208A145F49FFF78BFFAF
:102A300004E0224651464046FFF785FFA74200D1F9
:102A400010E06D1C4FF000090AEB440A08EB440843
:102A5000381B87B2B7F5007F02DD4FF4007400E049
:102A60003C46AFE700BFFFF7FBFE00BF9AE713B598
:102A70000446012201A92046FFF789FF1CBD10B5BD
:102A80000A224A494A48FFF771FF484800884FF632
:102A9000FF7188422DD145484088884229D143485A
:102AA0008088884225D14148C088884221D13F484A
:102AB000008988421DD13D484089884219D13B4850
:102AC0008089884215D11E203A49086040F6B83006
:102AD0003949086039483A49086000203949086096
:102AE00039483A4908603A483A4908603A49086022
:102AF00025E02E4800882F4908602C4840882E4940
:102B000008602A49888807F069FF2D49086027492D
:102B1000C88807F063FF2B4908602449088907F03B
:102B20005DFF2A4908602149488907F057FF294974
:102B300008601E49888907F051FF2749086010BDC9
:102B400010B51C480088254908801B48008848802B
:102B50001B48006807F00AFF204988801948006870
:102B600007F004FF1D49C8801848006807F0FEFE02
:102B70001A4908811748006807F0F8FE174948818C
:102B80001548006807F0F2FE144988810A220848B7
:102B9000FFF7FDFE10BD0000230167450020024045
:102BA000AB89EFCD0000010862060020080200207A
:102BB00000E00008A8000020AC0000200000A041B8
:102BC0009400002098000020000048439C00002052
:102BD00000004041A0000020A40000201C020020B2
:102BE0006849088000BF6749091F098801F0400152
:102BF0000029F8D070472DE9F05F05460E463001F8
:102C000007F0ECFE8146604905FB01F007F0E6FEA7
:102C10008246494607F098FD0746384607F0A6FE6B
:102C200084B2204607F0DAFE8346394608F01BF8E6
:102C300082464FF0834107F019FF814607F096FE68
:102C400080464FF6FF7000EA041404EB080084B2DB
:102C50004E48806940F001004C498861084680690F
:102C600040F0100088610846C06940F48020C861C7
:102C70004748406820F47F4045494860084640681E
:102C800040F40B4048600846C06840F48060C8606B
:102C90004048406840F010003E4948603B480069A9
:102CA00040F48020394908610846006920F48020FA
:102CB00008613448001D0480001D008842F20C01A8
:102CC00008433049083108800846008840F4807085
:102CD00008800846008840F0200008800223272250
:102CE00001210020FDF7B8FBBDE8F09F10B5254895
:102CF000001F008800F02000002841D026480078FE
:102D000050B926480078401CC0B2244908700A28EF
:102D100002DD0120204908701A480088C4B220460C
:102D200007F05CFE1E4908601E48007868B91E481E
:102D30000078FE2809D11D480078FF2805D1012020
:102D40001849087000201A490870164800780128B0
:102D50000FD1184816490978445415480078401C8A
:102D60001349087008460078082802D100200D4950
:102D700008700D4800780D4908700B48047000BFBA
:102D8000002010BD0448004040420F0000100240E7
:102D9000001001400000014065000020FA00002002
:102DA0004C00002066000020F8000020F900002000
:102DB000F70000205B000020FD48806940F004001F
:102DC000FB4988610846806940F010008861F94835
:102DD000006820F47060F74908600846006840F415
:102DE00000600860F248806940F01000F049886196
:102DF000F04800684FF2F0018843EE490860084649
:102E0000006843F230010843EA490860EA48006874
:102E100020F47020E84908600846006840F440301B
:102E20000860704738B50446012000900020E3494F
:102E30004870012000902DE0BDF80000204018B13E
:102E40000120DF49086002E00020DD490860012020
:102E5000DC4908600520FDF7ABFA0020DA49C1F82B
:102E600090010520FDF7A4FA0120D749C1F890018F
:102E7000D648D0F8080130B1D0484078BDF80010ED
:102E80000843CE494870BDF800004FF6FF7101EAD3
:102E900040000090BDF80000FF28CDDD1020FDF7B8
:102EA00087FA38BD10B50020C54908310860C84907
:102EB0000878FFF7B7FFC6494878FFF7B3FF01204E
:102EC000C249C1F88C01BD484078732801D1002067
:102ED00010BD0120FCE71CB50020019001200090EE
:102EE0000020B74908310860B9490878FFF79AFF10
:102EF000B7494878FFF796FF0220019035E001209E
:102F0000009026E00120AF4908600520FDF750FA47
:102F10000020AD49C1F890010520FDF749FA0120D4
:102F2000A949C1F89001A948D0F8080150B1A348B7
:102F30009DF80410405CBDF8001008439F499DF8BF
:102F400004208854BDF800004FF6FF7101EA4000EC
:102F50000090BDF80000FF28D4DD1020FDF728FA0E
:102F60009DF80400401CC0B201909DF8040009289F
:102F7000C5DB01209249083108601CBD002004E037
:102F800000218E4A1154411CC8B20928F8DB704751
:102F900010B5FFF7F3FFFFF79EFF8848C078874919
:102FA000097940EA01208B49088000240FE08A4813
:102FB00010F81400401E012101FA00F0854909882B
:102FC000084010B9601CC0B210BD601CC4B2102C07
:102FD000EDDB0020F8E701467848405C704770B5AB
:102FE00005460C4600207649083108601020FDF7A0
:102FF000DFF90120FFF716FF4220FFF713FF002043
:10300000FFF710FF2846FFF70DFF2046FFF70AFFE6
:103010000020FFF707FF0020FFF704FF0020FFF765
:1030200001FF0020FFF7FEFE01206849C1F88C0176
:103030001020FDF7BDF970BD10B5002060490831C2
:1030400008601020FDF7B4F90120FFF7EBFE4220E5
:10305000FFF7E8FE0020FFF7E5FE0020FFF7E2FEA5
:103060000020FFF7DFFE01205849C1F88C01102035
:10307000FDF79EF910BD10B50020514908310860D8
:103080001020FDF795F90120FFF7CCFE4320FFF754
:10309000C9FE0020FFF7C6FE0120FFF7C3FE002097
:1030A000FFF7C0FE0020FFF7BDFE0020FFF7BAFECD
:1030B0000020FFF7B7FE0020FFF7B4FE01204349D0
:1030C000C1F88C011020FDF773F910BD10B5002078
:1030D0003B49083108600120FFF7A4FE4420FFF7B8
:1030E000A1FE0020FFF79EFE0120FFF79BFE0320BC
:1030F000FFF798FE0020FFF795FE0020FFF792FEF5
:103100000020FFF78FFE0020FFF78CFE01202F49E3
:10311000C1F88C011020FDF74BF910BD10B500204F
:103120002749083108601020FDF742F90120FFF718
:1031300079FE4D20FFF776FE0020FFF773FE00209A
:10314000FFF770FE0120FFF76DFE01201F49C1F857
:103150008C011020FDF72CF910BD10B50020184986
:10316000083108601020FDF723F90120FFF75AFE0F
:103170004320FFF757FE0020FFF754FE0020FFF723
:1031800051FE5A20FFF74EFE5A20FFF74BFE5A2001
:10319000FFF748FE5A20FFF745FE5A20FFF742FE90
:1031A00001200A49C1F88C011020FDF701F910BD7A
:1031B000001002400010014000080140620A002097
:1031C000840122429001214200002142000022425B
:1031D000FE000020FC0000200001002010B5FFF7D9
:1031E0002BFFFFF729FFFFF727FFFFF744FFFFF74C
:1031F0006DFFFFF7B2FF10BD10B50E48007898B113
:103200000720FFF7E8FE0C4908600820FFF7E3FEFF
:103210000A4908600520FFF7DEFE0949086006201C
:10322000FFF7D9FE07490860FFF7B2FE06490860BC
:1032300010BD000064000020B0000020B400002099
:10324000B8000020BC000020C00000202DE9F0479D
:1032500090B0044689469246FE49B1F9040007F051
:10326000A5FB8046FC480168404607F0FFFB064688
:1032700051464FF07E5007F0F9FB8046214607F09B
:10328000F5F90746314607F0F1F9054607F052FB1C
:10329000F2490860EF49B1F9040007F087FB0646E0
:1032A000ED480168304607F0E1FB054607F0B2F94A
:1032B000CDE90C0151464FF07E5007F0D7FB074691
:1032C00007F0A8F905460E46484607F0A3F9CDE9F0
:1032D00002010020E24906F04FFB00224FF080433C
:1032E000CDE9000106F05CFC0746DDE9022306F0AB
:1032F00081FECDE906014FF03F41204607F0B6FBC5
:10330000074607F087F9CDE90401DDE9062306F059
:103310008BFB2A463346CDE9080106F085FBCDE953
:103320000A01DDE90C2306F07FFBCDE90E0106F072
:10333000CBFDCC490860C749B1F9040007F036FB62
:103340000646C5480168304607F090FB054607F081
:1033500061F9CDE90E0151464FF07E5007F086FB32
:10336000054607F057F9CDE90A01484607F052F93A
:10337000CDE902010020BA4906F0FEFA0546002216
:103380004FF0804306F00CFCCDE90001DDE902239B
:1033900006F030FECDE906014FF03F41204607F030
:1033A00065FB054607F036F9CDE90401DDE90623A2
:1033B00007F046F8CDE90801DDE90A2306F034FB01
:1033C000CDE90C01DDE90E2306F02EFB074606F0E1
:1033D0007BFDA549086010B0BDE8F0872DE9F047F6
:1033E0008CB004468946924651464FF07E5007F015
:1033F0003DFB0646214607F039F9054607F09AFAE3
:103400009A49086051464FF07E5007F02FFB054661
:1034100007F000F9CDE90801484607F0FBF805463A
:103420000E4600208E4906F0A7FA074600224FF00C
:10343000804306F0B5FB2A463346CDE9000106F08D
:10344000D9FDCDE904014FF03F41204607F00EFBC6
:10345000054607F0DFF8CDE90201DDE9042306F0B7
:10346000E3FACDE90601DDE9082306F0DDFACDE94E
:103470000A0106F029FD7E49086051464FF07E5052
:1034800007F0F4FA054607F0C5F8CDE9080148460B
:1034900007F0C0F8CDE902010020714906F06CFA8E
:1034A000054600224FF0804306F07AFBCDE900018B
:1034B000DDE9022306F09EFD074688464FF03F41B6
:1034C000204607F0D3FA054607F0A4F83A464346EB
:1034D000CDE9040106F0B4FFCDE90601DDE90823DA
:1034E00006F0A2FACDE90A0106F0EEFC6149086097
:1034F0000CB0BDE8F08730B503460020002B06DD98
:103500001C185D4D2C8000245C4D2C6007E003F5F9
:10351000E154241A584D2C800124584D2C60002968
:1035200009DDC1F5E154241A534D2D1D2C800124D1
:10353000534D2C6007E04C4204444F4D2D1D2C8010
:1035400000244F4D2C60002A08DD14184A4D083520
:103550002C800024494D2D1D2C6009E002F5E1541A
:10356000241A454D08352C800124444D2D1D2C6016
:1035700030BD444909684242914202DA4142414A1F
:10358000116040490968814201DD3E4908603E49B9
:1035900009684242914202DA41423B4A11603A498B
:1035A0000968814201DD38490860384909684242AA
:1035B000914202DA4142354A116034490968814238
:1035C00001DD3249086070472DE9F05F04460D4681
:1035D000601B2F4908600846006807F0E7F983463A
:1035E0002C480168584607F041FA80462849096886
:1035F000294A1268881A07F0D9F9834627480168D2
:10360000584607F033FA8146414607F02FF807463F
:103610002348006807F0CAF98246394607F026F8C1
:10362000064607F087F91E49086008460068B0F5AD
:10363000E15F02DD4FF4E15008601948006810F5C1
:10364000E15F02DA1748164908601148006812491C
:10365000086029E0D40100202C0100203C0000205B
:10366000000008404000002044000020200000200E
:103670002400002028000020343401409001224220
:1036800080812142300000203400002038000020DA
:103690004C010020A400002054010020A0000020C4
:1036A00050010020E0E3FFFFFE480068BDE8F09F06
:1036B0002DE9F05F04460D46601BFB490860084693
:1036C000006807F073F98346F8480168584607F028
:1036D000CDF98046F4490968F54A1268881A07F05E
:1036E00065F98346F3480168584607F0BFF98146FB
:1036F000414606F0BBFF0746EF48006807F056F961
:103700008246394606F0B2FF064607F013F9EA4949
:10371000086008460068B0F5E15F02DD4FF4E15053
:103720000860E548006810F5E15F02DAE348E24925
:103730000860DD480068DE490860DF480068BDE8D1
:10374000F09F2DE9F05F04460D46601BDC490860E0
:103750000846006807F02AF98346D44801685846AD
:1037600007F084F98046D6490968D64A1268881A53
:1037700007F01CF98346CF480168584607F076F9F0
:103780008146414606F072FF0746CF48006807F0C1
:103790000DF98246394606F069FF064607F0CAF879
:1037A000C949086008460068B0F5E15F02DD4FF4E2
:1037B000E1500860C448006810F5E15F02DABF48D4
:1037C000C1490860BE480068BE490860BE4800683C
:1037D000BDE8F09F10B5BD4B1B684442A34202DA1E
:1037E0004342BA4C2360B94B1B68834201DDB74B9F
:1037F0001860B74B1B684C42A34202DA4B42B44CF0
:103800002360B34B1B688B4201DDB14B1960B14B98
:103810001B685442A34202DA5342AE4C2360AD4BC4
:103820001B68934201DDAB4B1A6010BD01460029B5
:1038300001DA484200E0084670472DE9F04F89B0B0
:10384000A548006806F0E6FE8246A4480CC850462B
:1038500006F0F6FD04460D46A148006806F0DAFEC3
:103860008246A0480CC8504606F0EAFD06460F46C0
:103870009D48006806F0CEFE82469C480CC8504623
:1038800006F0DEFD80468946002213462046294682
:1038900006F0DEFA0DD1002213463046394606F016
:1038A000D7FA06D1002213464046494606F0D0FA20
:1038B00027D042464B464046494606F09BFB3246DF
:1038C0003B46CDE904013046394606F093FB82467B
:1038D0008B4622462B462046294606F08BFB524655
:1038E0005B46CDE9000106F09FF8CDE90201DDE974
:1038F000042306F099F8CDE9060106F03DF87C4A6C
:1039000003C2002213462046294606F0A1FA0DD133
:10391000002213463046394606F09AFA06D10022B4
:1039200013464046494606F093FA12D040464946AF
:1039300006F048F882463046394606F043F883469A
:103940002046294606F03EF8524659460790FFF7B2
:1039500045FD68480068FFF769FF67490968484303
:10396000019006F0F7FACDE9020161480CC802980F
:1039700006F016F9824606F0A7FA07905F4800683D
:10398000FFF754FF5C4909684843019006F0E2FAEA
:10399000CDE9020156480CC8029806F001F98246AA
:1039A00006F092FA069056480068FFF73FFF52492A
:1039B00009684843019006F0CDFACDE902014C4870
:1039C0000CC8029806F0ECF8824606F07DFA0590E5
:1039D000DDE90612FFF7FEFE454903C905F0F2FFD7
:1039E000484908603C48006806F014FE3B4A03C2A0
:1039F0003B48006806F00EFE3A4A03C23A480068A7
:103A000006F008FE394A03C209B0BDE8F08F2DE97F
:103A1000F04704460D46601B06F0C8FF3A490860AF
:103A2000084601683948006806F020FE37490860FA
:103A300037493648006807F0E5F802D2354833497F
:103A4000086035493148006806F0DCFF02D233488F
:103A50002E490860324801682B48006807F00EF9CB
:103A6000804630480168404607F000F806462E4977
:103A70002E48006806F068FE8246244801685046D9
:103A800006F0F4FF8046204801682948006806F0E7
:103A9000EDFF8146414606F0E9FD0746314606F056
:103AA000E5FD47E05001002040010020A400002077
:103AB00048010020A000002044010020E0E3FFFFB7
:103AC000340100203C01002038010020300000209B
:103AD00034000020380000208800002088010020E9
:103AE0008C00002090010020900000209801002010
:103AF000A001002028000020A800002024000020B1
:103B0000200000204C0000207801002080010020CF
:103B10000050C34700401C460050C3C700401CC6AD
:103B2000840100209C0000200000C8429800002072
:103B300094000020FE490860FE480068FE490860C5
:103B4000FB48006806F0F6FEBDE8F0872DE9F04777
:103B500004460D46601B06F029FFF8490860084638
:103B60000168F748006806F081FDF5490860F549ED
:103B7000F348006807F046F802D2F348F0490860BD
:103B8000F249EF48006806F03DFF02D2F048EC49E8
:103B90000860F0480168E948006807F06FF880465F
:103BA000ED480168404606F061FF0646EB49EC48E7
:103BB000006806F0C9FD8246E1480168504606F0FB
:103BC00055FF8046DD480168E648006806F04EFF74
:103BD0008146414606F04AFD0746314606F046FD5D
:103BE000E1490860D5480068DA490860DE480068A5
:103BF00006F0A0FEBDE8F0872DE9F04704460D462B
:103C0000601B06F0D3FED949086008460168D84811
:103C1000006806F02BFDD6490860CA49D448006800
:103C200006F0F0FF02D2C848D1490860C749D04821
:103C3000006806F0E7FE02D2C548CD490860CD48CD
:103C40000168CA48006807F019F88046C248016850
:103C5000404606F00BFF0646C049C148006806F022
:103C600073FD8246C2480168504606F0FFFE80465A
:103C7000BE480168BB48006806F0F8FE8146414630
:103C800006F0F4FC0746314606F0F0FCBA4908603D
:103C9000B6480068B7490860B748006806F04AFEB1
:103CA000BDE8F0872DE9F04704464FF07C5A4FF00D
:103CB0000109002C71D1B148007809286ED2DFE8E3
:103CC00000F07F05122330414E5F6E000020AC49AA
:103CD00008605146AB48006806F0C8FCA949086076
:103CE0004FF001098BE05146A548006806F0BEFC84
:103CF000A34908605146A348006806F0B7FCA149F3
:103D000008604FF001097AE051469D48006806F0CE
:103D1000ADFC9B49086000209A4908604FF00109FA
:103D20006DE051469648006806F0A0FC9449086092
:103D300051469448006806F0A1FF924908604FF090
:103D400001095CE000208E49086051468D480068FA
:103D500006F094FF8B4908604FF001094FE051468F
:103D60008748006806F08AFF854908605146854803
:103D7000006806F083FF834908604FF001093EE0C8
:103D800051467F48006806F079FF7D4908600020B1
:103D90007C4908604FF0010931E00CE110E0514628
:103DA0007748006806F06AFF754908605146754813
:103DB000006806F05BFC734908604FF001091EE0E3
:103DC0004FF000096E48006806F024FC07466E4A72
:103DD0006E4B05F0E5FE054605F0F4FD6849086008
:103DE0006848006806F016FC0746674A674B05F00E
:103DF000D7FE054605F0E6FD6249086000BF00BF3A
:103E0000B9F1000F23D16248007801280AD1514648
:103E10006048006806F032FF5E49086000205E4995
:103E2000086014E05D48007801280AD151465948DD
:103E3000006806F01BFC57490860002056490860DE
:103E400005E0002053490860554853490860B9F11E
:103E5000010F06D100204E490870504908704D49A5
:103E6000086050480068404206F0A0FD05464448FE
:103E70000168284606F0C6FE06D24A48006840425D
:103E800006F094FD3E4908604648006806F08EFD45
:103E900005463B480168284606F0B4FD05D2414876
:103EA000006806F083FD364908603E4800684042DD
:103EB00006F07CFD054633480168284606F0A2FE60
:103EC00006D238480068404206F070FD2D4908606F
:103ED0003448006806F06AFD05462A48016828460D
:103EE00006F090FD05D22F48006806F05FFD2549D9
:103EF00008602C480068404206F058FD05462548F9
:103F00000168284606F07EFE06D226480068404238
:103F100006F04CFD1F4908602248006806F046FD87
:103F200005461C480168284606F06CFD42D23BE07D
:103F30007C0100207801002084010020680100201D
:103F4000700100200050C34700401C460050C3C70A
:103F500000401CC6740100209C0000200000C842E4
:103F600098000020940000206C01002058010020DF
:103F700060010020640100205C010020020000209C
:103F8000880000208C000020CDCCCCCCCCCCF03FE5
:103F900000000020900000202C01002001000020E3
:103FA0006F12833BA8000020FE48006806F0FEFC6C
:103FB000FD490860E0E0012CFCD1FC4800780B28AA
:103FC0006FD2DFE800F0D7061632425E6F8B9BB7E8
:103FD000C700F748006806F0E9FC0546F5480168A7
:103FE000284606F043FBF34908600120F2490870B7
:103FF000C1E0EF48006806F0D9FC0546EF480168CB
:10400000284606F033FBED4908600220EA490870B3
:10401000E748006806F0CAFC0546E64801682846FD
:1040200006F024FBE3490860A5E0E148006806F0DB
:10403000BDFC0546E1480168284606F017FBDF494C
:1040400008600320DC49087095E0D948006806F054
:10405000ADFC0546D9480168284606F007FBD7495C
:1040600008600420D4490870D148006806F09EFC1E
:104070000546D0480168284606F0F5FDCD490860A0
:1040800079E0CB48006806F091FC0546C948016814
:10409000284606F0E8FDC74908600520C6490870B3
:1040A00069E067E0C248006806F080FC0546C34846
:1040B0000168284606F0D7FDC04908600620BE49C1
:1040C0000870BB48006806F071FC0546B9480168F5
:1040D000284606F0C8FDB74908604CE0B4480068BF
:1040E00006F064FC0546B5480168284606F0BBFDAD
:1040F000B24908600720B04908703CE0AC4800684D
:1041000006F054FC0546AD480168284606F0ABFDB4
:10411000AA4908600820A8490870A548006806F068
:1041200045FC0546A3480168284606F09FFAA149C8
:10413000086020E09E48006806F038FC05469A4872
:104140000168284606F08FFD9749086009209A49C2
:10415000087010E09648006806F028FC0546924872
:104160000168284606F082FA8F4908600A209249C1
:10417000087000E000BF00BF8B4802688D480168EE
:104180008E480068FFF762F8BDE8F087014640F608
:10419000AC02914210DA01200022894B1A801B1DCB
:1041A0001A801B1D1A80874B1A60874BC3F8802129
:1041B000844B1B1D1A6000E0002070472DE9F05F62
:1041C000142482480078012803D08148007801280F
:1041D00064D18048C07900F0040010B94FF00108A4
:1041E00001E04FF0FF387B48C07900F0020010B9C1
:1041F0004FF0010901E04FF0FF397648C07900F037
:10420000010010B94FF0010A01E04FF0FF3A714987
:104210008A78497802EB012101FB08F006F0C6FB21
:10422000664908606B490A79C97802EB012101FBF4
:1042300009F006F0BBFB5F49086066498A79497955
:1042400002EB012101FB0AF006F0B0FB56490860C1
:104250006048007801280AD108460268554801687C
:1042600056480068FEF7F2FF00205B490860594895
:104270000078022862D15148006806F05BFB57497C
:1042800008604C48006806F055FB554908604648F0
:10429000006806F04FFB534908604FE05248007831
:1042A00001284BD151480068A0F1800550480068B2
:1042B000A0F180064F480068A0F180076042854267
:1042C00002DDA54200DA00256042864202DDA642F8
:1042D00000DA00266042874202DDA74200DA0027AA
:1042E000304800686843C82190FBF1FB584606F04F
:1042F0005DFB3249086070422A4909684843C82179
:1043000090FBF1FB584606F051FB2A4908607842C1
:10431000244909684843C82190FBF1FB584606F040
:1043200045FB214908600846026822480168234885
:104330000068FEF78BFF002027490860BDE8F09F6A
:1043400010B56420FCF7C6FD0446022C07D12A48AC
:10435000007808B9012000E000202749087010BD4E
:1043600070B52648006800287ED14FF400402449EB
:1043700008602448007808B9012000E000202149A5
:1043800008702148007801280BD120480078401C93
:10439000C0B21E4908700A2803D1002008701A49CB
:1043A000087035E0A80000209000002002000020E6
:1043B000AC0000208C00002021010020880000209B
:1043C00034340140900122420080214263000020E9
:1043D00065000020530000202C0100203C0000203C
:1043E000400000204400002064000020B0000020B5
:1043F000B4000020B8000020040000203C812142CD
:104400001404014020010020510000205000002031
:104410009A480078012815D19948007860B99948E0
:10442000007848B998480078012805D197489849FC
:104430000A6802604968416003F098F9FFF780FF5D
:10444000002070BD0220FDF721FB142190FBF1F04C
:104450009049086090480068096808448E490860DF
:104460000320FDF713FB00E0F0E0142190FBF1F0D6
:104470008A4908608A4800680968084488490860D1
:104480000420FDF703FB142190FBF1F0854908603F
:1044900085480068096808448349086003F066F9A4
:1044A0006420FCF7D7FCFDF7AAF8054606F07EFA73
:1044B00004467E480168204606F0D8F87B4908602B
:1044C0004FF07E517A48006806F0D0F878490446EB
:1044D0000860784906F0FAF90ED176497348006809
:1044E00006F032F9044606F025FA73490860002008
:1044F0006E4908606E49086070480068042807D15A
:1045000001206049087000206D4908705E490870FC
:104510006B480078012807D05B480078012803D059
:1045200058480078012801D1FFF748FE6548006827
:10453000002806DD63480068192802DA192061495D
:1045400008605D480068FFF721FE00287ED15E48C4
:10455000007828BB5A48007848B94B48007830B9F1
:104560004848007818B958480078FFF79BFB57482F
:10457000016848480068FFF7E4F855490860554865
:10458000016846480068FFF793F8534908605348AC
:10459000016844480068FFF717F8514908605EE079
:1045A0004748007880B93848007868B935480078BD
:1045B00050B94C48007818B9FCF741FB4A490870DB
:1045C00041480078FFF76EFB4048016832480068B8
:1045D000FFF712FB00123E4908603E480168304870
:1045E0000068FFF7B3FA00123B4908603B480168D6
:1045F0002D480068FFF70BFA00123949086023487C
:104600000078022802D0FFF718F905E02D4802686B
:1046100001680068FFF7DEF82F48006806F0C6F969
:10462000324908602A48006841421A480068FFF78A
:1046300088F8274908602848006841421748006800
:10464000FFF736F824490860254800E013E00068C9
:10465000414214480068FEF7B7FF2149086041F65F
:10466000F420FEF786FF1E4802681B4801681848C0
:104670000068FEF740FF0020E3E600002001002074
:104680006600002064000020650000205300002028
:104690005B00002008000020140000200C00002017
:1046A00018000020100000201C000020280100201D
:1046B000240100200000C84248000020C000002063
:1046C00063000020A8000020520000203C000020D1
:1046D0003000002040000020340000204400002072
:1046E0003800002079000020020000204C0000204B
:1046F00038B50446FB4890F82400C0B114B102203C
:10470000009001E000200090F64A1268D17BF54A43
:10471000526810786B460122FDF70EFB10B14FF086
:10472000FF3038BD9DF80010EE48417423E0ED489D
:10473000807A10B94FF0FF30F3E724B1E948407CAC
:1047400008B10020EDE714B10120009001E0002045
:104750000090E44A1268D17BE24A526810786B46B6
:104760000122FDF7E9FA10B14FF0FF30D9E79DF8CB
:104770000010DC4841740020D3E738B5002419E06C
:10478000D8480068C07AA04204D0D6480068407D6E
:10479000A04200D10CE0D349496808786B46012259
:1047A0002146FDF72BFB10B14FF0FF3038BD00BFA5
:1047B000601CC4B2CB4840680079A042E0DC002015
:1047C000F4E770B504460D46C6480068C07AA042BA
:1047D00004D0C4480068407DA04202D14FF0FF30B1
:1047E00070BDC04840680079A04202DC4FF0FF3045
:1047F000F6E7BC49496808782B4601222146FDF7B7
:10480000FDFAEDE738B50446B64890F82300A0421B
:1048100001D1002038BD14B13020009001E000200B
:104820000090B048807C20B19DF8000040F002006C
:104830000090AC4890F8220020B19DF8000040F0B4
:1048400080000090A74A1268117DA64A526810782D
:104850006B460122FDF770FA10B14FF0FF30D9E737
:10486000A04880F823400020D4E738B5044604F07F
:10487000700010B10120009005E014B100200090FC
:1048800001E040200090974A1268917C954A526856
:1048900010786B460122FDF74FFA20B100219148B4
:1048A0008172481E38BD9DF8000020F040018D48FF
:1048B00001730020009004F0400020B99DF8000032
:1048C00040F00400009004F0200020B99DF80000A2
:1048D00040F00200009004F0100020B99DF80000A4
:1048E00040F00100009004F0080020B99DF800009D
:1048F00040F0380000907B4A1268D17C794A5268B7
:1049000010786B460122FDF717FA20B10021754897
:104910008172481EC6E724B1082C02D00020FFF7A0
:1049200071FF70488472002101753220FBF75CFD35
:104930000020B7E738B504466A48807CA04201D120
:10494000002038BD002C46D0664A12681179654AAD
:10495000526810786B460122FDF750FA10B14FF003
:10496000FF30EEE79DF8000020F0200000905D4A47
:10497000126811795B4A526810786B460122FDF784
:10498000DBF910B14FF0FF30DBE70320FBF72CFD24
:1049900002200090534890F8220020B19DF80000BA
:1049A00040F0800000904F4890F8230020B19DF81F
:1049B000000040F0300000904A4A1268117D494AD8
:1049C000526810786B460122FDF7B6F9002851D0E5
:1049D0004FF0FF30B5E7434A12681179414A5268F7
:1049E00010786B460122FDF709FA10B14FF0FF3045
:1049F000A7E73C48807A00F0010028B19DF800004C
:104A000040F02000009004E09DF8000020F020001D
:104A10000090344A12681179324A526810786B4615
:104A20000122FDF789F910B14FF0FF3089E703202B
:104A3000FBF7DAFC2B4890F8220010B180200090A0
:104A400001E000200090274890F8230020B19DF855
:104A5000000040F030000090224A1268117D214A87
:104A6000526810786B460122FDF766F910B14FF0DD
:104A7000FF3066E71B488474002062E708B51948D8
:104A8000807A10B94FF0FF3008BD00200090154A21
:104A90001268D17B134A526810786B460122FDF7E9
:104AA0004BF910B14FF0FF30EEE70E4A1268517922
:104AB0000C4A526810786B460122FDF73DF910B19F
:104AC0004FF0FF30E0E7074A12681179054A526853
:104AD00010786B460122FDF72FF928B14FF0FF3017
:104AE000D2E70000A8010020F74890F82400002831
:104AF00050D00C200090F44A12681179F24A5268A2
:104B000010786B460122FDF717F910B14FF0FF3016
:104B1000BAE7C0200090EC48807A00F0010020B194
:104B20009DF8000040F020000090E74A12681179DB
:104B3000E54A526810786B460122FDF7FDF810B186
:104B40004FF0FF30A0E7E048407C10B10220009019
:104B500001E000200090DC4A1268D17BDA4A5268FA
:104B600010786B460122FDF7E7F810B14FF0FF30E7
:104B70008AE700200090D44A12685179D24A5268DC
:104B800010786B460122FDF7D7F8002852D04FF07D
:104B9000FF3079E704200090CB4A12681179CA4AA5
:104BA000526810786B460122FDF7C6F810B14FF03D
:104BB000FF3069E7C448807C20B9C348807A00F0A0
:104BC000010010B94020009001E060200090BE4A32
:104BD00012681179BC4A526810786B460122FDF7C1
:104BE000ABF810B14FF0FF304EE7B748407C10B142
:104BF0000120009001E000200090B34A1268D17BB0
:104C0000B14A526810786B460122FDF795F810B151
:104C10004FF0FF3038E7AC4A12685179AA4A52681F
:104C20001078A94B10330122FDF786F810B14FF030
:104C3000FF3029E7002027E770B50446002624F05E
:104C40000104A14890F8240008B1002070BD9E48DE
:104C5000807A10B94FF0FF30F8E79B48057C807AE6
:104C60002040994908740846007CA04202D04FF0C9
:104C7000FF3600E0002614B99348007D18B10120EA
:104C8000FFF736FD02E00020FFF732FD3CB1FFF7F1
:104C9000F5FE20B18C4805744FF0FF30D6E7304662
:104CA000D4E738B504468848807A10B94FF0FF3011
:104CB00038BDBC2C02DB0120009015E0622C02DB29
:104CC0000220009010E02A2C02DB032000900BE071
:104CD000142C02DB0420009006E00A2C02DB0520E5
:104CE000009001E0062000907748C07A9DF80010FF
:104CF000884201D10020DBE7734A12689178724A3A
:104D0000526810786B460122FDF716F810B14FF08B
:104D1000FF30CDE79DF800106B48C1720020C7E757
:104D200038B50446282C02DD4FF0FF3038BDDCB921
:104D30000020FFF767FD00208DF8000007208DF8A8
:104D40000100614A1268917C5F4A526810786B4694
:104D50000222FCF7F1FF10B14FF0FF30E6E700212F
:104D6000594801750020E1E70120FFF74BFD2020A5
:104D70008DF80000012C06D100208DF801000520DF
:104D8000FFF78FFF17E0052C06DC01208DF80100EE
:104D90000520FFF786FF0EE0142C06DC02208DF8BC
:104DA00001000A20FFF77DFF05E003208DF80100D8
:104DB0001420FFF776FF9DF80100072101EB80101A
:104DC000C0B28DF80100404A1268917C3E4A526898
:104DD00010786B460222FCF7AFFF10B14FF0FF30A6
:104DE000A4E708213848817200210173012101756F
:104DF0000020FFF721FF002098E738B5044632482D
:104E0000807A10B94FF0FF3038BD2F4890F8240059
:104E100010B14FF0FF30F7E72B48007D50B134B1AF
:104E2000282C04DCE0B2FFF77BFF0020ECE7002039
:104E3000FFF776FF042C01DA042404E0B4F57A7F4E
:104E400001DD4FF47A744FF47A7090FBF4F0401E59
:104E5000C0B200901C4A126851781B4A5268107800
:104E60006B460122FCF768FF10B14FF0FF30CBE733
:104E70009DF80000401C4FF47A7191FBF0F081B274
:104E80001148C1810146C9894810FFF70AFF002077
:104E9000BAE738B504460C48807A10B94FF0FF30B5
:104EA00038BD022C06D0042C07D0082C08D0102CBA
:104EB0000FD10BE0002000900EE0082000900BE0E6
:104EC0001020009008E00000A801002018200090A9
:104ED00002E04FF0FF30E3E700BFF948407A9DF869
:104EE0000010B0EBE10F01D10020D9E7F44A1268BD
:104EF000D179F34A526810786B460122FCF71CFF07
:104F000010B14FF0FF30CBE79DF80000C110EC4826
:104F100041720020C4E738B50446E948807A10B9E8
:104F20004FF0FF3038BDFA2C09D0B4F5FA7F09D024
:104F3000B4F57A7F09D0B4F5FA6F0CD108E00020FF
:104F400000900BE00820009008E01020009005E0A1
:104F50001820009002E04FF0FF30E3E700BFD84890
:104F6000007A9DF80010B0EBE10F01D10020D9E7E5
:104F7000D34A12689179D24A526810786B4601225E
:104F8000FCF7DAFE10B14FF0FF30CBE79DF80000E0
:104F9000C010CB4908720020C4E71CB580208DF8F2
:104FA0000000C74A1268917CC54A526810786B4667
:104FB0000122FCF7C1FE10B14FF0FF301CBD642090
:104FC000FBF712FA00208DF80000BD4A1268917CB0
:104FD000BB4A526810786B460122FCF7ADFE10B157
:104FE0004FF0FF30EAE7B64A1268917DB44A526842
:104FF00010786B460622FCF701FF10B14FF0FF302E
:10500000DCE79DF80500C007400F9DF8031001F094
:10501000010140EA41009DF8011001F0010140EA60
:10502000010494B1012C03D10121A548C17431E0E0
:10503000022C03D10021A248C1742BE02146A1A07B
:1050400003F0DCF94FF0FF30B8E79D4A1268D178E1
:105050009B4A526810786B460122FCF7CFFE10B1D4
:105060004FF0FF30AAE79DF8000000F00F042CB9C4
:105070009E4803F0C3F94FF0FF309FE7042C06D1A0
:105080009BA003F0BBF901218D48C17402E000210F
:105090008B48C174FF218A488172FF2088490872B9
:1050A000FF2187484172C1724FF6FF71C181FF2114
:1050B000017481740121017380F82210002180F8AD
:1050C000231041750175163001604160816016380A
:1050D00080F8241080F82510C1844FF4FA60FFF79F
:1050E0001AFF10B14FF0FF3068E70220FFF7D1FE42
:1050F00010B14FF0FF3061E72A20FFF7D2FD10B169
:105100004FF0FF305AE73220FFF777FE10B14FF033
:10511000FF3053E70020FFF78FFD10B14FF0FF3055
:105120004CE70020FFF706FC10B14FF0FF3045E7D9
:105130000020FFF79AFB002040E770477CB504464B
:105140000D465F48807A00F0700010B94FF0FF30D4
:105150007CBD5B4A1268117B594A526810786B46D5
:105160000622FCF74BFE10B14FF0FF30F0E79DF840
:1051700001009DF8001040EA012000B220809DF857
:1051800003009DF8021040EA012000B260809DF803
:1051900005009DF8041040EA012000B2A08015B17E
:1051A0002846FFF7CAFF0020D2E77CB504460D462B
:1051B0004348807A00F0080010B94FF0FF307CBD02
:1051C0003F4A1268517B3E4A526810786B4606226D
:1051D000FCF714FE10B14FF0FF30F0E79DF801002E
:1051E0009DF8001040EA012000B220809DF80300E5
:1051F0009DF8021040EA012000B260809DF8050091
:105200009DF8041040EA012000B2A08015B12846A4
:10521000FFF793FF0020D2E72DE9FE4F05460C462D
:105220002748807A18B94FF0FF30BDE8FE8F244A36
:105230001268917B224A5268107802AB0222FCF776
:10524000DDFD10B14FF0FF30EFE79DF809009DF84C
:10525000081040EA012006B214B12046FFF76DFFA6
:1052600017494968C88805F0B9FB15490190496894
:10527000B1F9080005F09AFB8346304605F096FB2D
:105280005946009005F0FAFC8246019905F05CFA57
:1052900081461F4905F0EAF980464FF08F4105F03D
:1052A000E5FB074605F046FB28600020BDE710B58A
:1052B00088B004461CB94FF0FF3008B010BD29E09B
:1052C000A8010020556E737570706F72746564204C
:1052D000736F6674776172652070726F6475637442
:1052E000207265762025642E0A00000080C6000822
:1052F00048616C662073656E736974697669747948
:10530000207061727420666F756E642E0D0A000045
:1053100000000C42206830B9606820B9A06810B95C
:10532000002008B010BDFA494968087806AB03228E
:105330001146FCF763FD10B14FF0FF30F1E79DF827
:105340001800082101EB201000F00F00ADF800005C
:105350009DF8190001EB201000F00F00ADF80200DD
:105360009DF81A0001EB201000F00F00ADF80400CA
:1053700020684100BDF90000403091FBF0F000B220
:10538000ADF8100060684100BDF90200403091FBAB
:10539000F0F000B2ADF81200A0684100BDF90400C1
:1053A000403091FBF0F000B2ADF81400D8494968E4
:1053B000087806AB06221146FCF720FD10B14FF02D
:1053C000FF30AEE79DF819009DF8181040EA012063
:1053D00000B2ADF808009DF81B009DF81A1040EAD5
:1053E000012000B2ADF80A009DF81D009DF81C10C8
:1053F00040EA012000B2ADF80C00BDF81000BDF885
:105400000810084400B2ADF81000BDF81200BDF855
:105410000A10084400B2ADF81200BDF81400BDF83F
:105420000C10084400B2ADF81400BDF81000000ADA
:105430008DF81800BDF81000C0B28DF81900BDF845
:105440001200000A8DF81A00BDF81200C0B28DF8E3
:105450001B00BDF81400000A8DF81C00BDF81400F4
:10546000C0B28DF81D00AA494968087806AB06222B
:105470001146FCF761FC10B14FF0FF3051E70020FE
:105480004FE70146A248007A30B1012807D0022830
:1054900009D003280FD10AE0FA2008800EE04FF46B
:1054A000FA7008800AE04FF47A70088006E04FF442
:1054B000FA60088002E00020088000BF00BF0020E2
:1054C000704701469248407A30B1012807D002283F
:1054D00008D003280CD108E0022008700BE004205B
:1054E000087008E00820087005E01020087002E04D
:1054F0004FF0FF30704700BF8548C07C18B1087876
:105500004006000E08700020F4E701468048C07A8B
:10551000082817D2DFE800F01704070A0D10131847
:10552000BC20088013E06220088010E02A20088058
:105530000DE0142008800AE00A20088007E005201A
:10554000088004E000BF00BF0020088000BF00BF4B
:105550000020704701466E4890F8240010B14FF0CB
:10556000FF3070476A48C08908800020F9E701468B
:1055700000200880401E704701464FF0FF30704702
:1055800001466348007A30B1012807D0022808D0CC
:1055900003280CD108E05F4808600BE05E48086013
:1055A00008E05E48086005E05D48086002E04FF0F2
:1055B000FF30704700BF0020FBE701465448407AA7
:1055C00030B1012808D002280AD0032810D10BE0FE
:1055D0004FF4804008800EE041F69C7008800AE09D
:1055E0004FF48050088006E04FF40060088002E02D
:1055F0004FF0FF30704700BF4548C07C10B10888AD
:10560000401008800020F5E701464148007C087002
:105610000020704701463E48807A10B10120087092
:1056200001E0002008700020704738B50446384873
:10563000807A10B94FF0FF3038BD354A1268117CBE
:10564000334A526810786B460222FCF7D7FB10B140
:105650004FF0FF30F0E79DF801009DF8001040EAA0
:10566000012000B220800020E6E72DE9FE4F07462A
:10567000884692461D46DDF830B0002600242448B6
:1056800090F8240010B1601EBDE8FE8F0020287045
:105690001F48807A10B94FF0FF30F5E71C48007CB6
:1056A00010B94FF0FF30EFE71948007C00F04000E0
:1056B00008B1B01CC6B21648007C00F0200008B14A
:1056C000B01CC6B21248007C00F0100008B1B01C3B
:1056D000C6B20F48007C00F0080008B1B01DC6B289
:1056E0000B4A1268917A0A4A526810786B46022275
:1056F000FCF784FB10B14FF0FF30C5E79DF80100C7
:105700009DF8001040EA0129B1450BDA0020BBE703
:10571000A80100200000034300008342333303420A
:1057200033338341FC4840684088B9EB600F17DD94
:10573000F94A1268517CF84A526810786B46012287
:10574000FCF75CFB10B14FF0FF309DE79DF80000C7
:1057500000F0100020B1FFF791F96FF0010093E71E
:105760005046FFF7EAFCEC4A1268D17AEA4A5268DE
:1057700010786B463246FCF741FB10B14FF0FF301A
:1057800082E799FBF6F0401E8BF80000002028709D
:10579000B4422AD0E048007C00F0080028B3601C26
:1057A0001DF800001DF8041040EA012000B2A8F81E
:1057B0000000E01C1DF80010A01C1DF8000041EACC
:1057C000002000B2A8F80200601D1DF80010201D86
:1057D0001DF8000041EA002000B2A8F80400287873
:1057E00040F008002870A01D84B2B44213D0CA480B
:1057F000007C00F0400070B1601C1DF800001DF836
:10580000041040EA012000B23880287840F04000BF
:105810002870A01C84B2B44213D0BF48007C00F0B2
:10582000200070B1601C1DF800001DF8041040EA53
:10583000012000B27880287840F020002870A01C59
:1058400084B2B44213D0B448007C00F0100070B1B0
:10585000601C1DF800001DF8041040EA012000B291
:10586000B880287840F010002870A01C84B2002076
:105870000AE7F8B504460F461646A74890F82400F4
:1058800010B94FF0FF30F8BDA348807A10B94FF03F
:10589000FF30F8E7A04A1268917A9F4A5268107860
:1058A0006B460222FCF7AAFA10B14FF0FF30EAE78C
:1058B0009DF801009DF8001040EA0125A54203DA99
:1058C00000203070401EDEE7934840684088B5EB0A
:1058D000600F17DD904A1268517C8F4A5268107829
:1058E0006B460122FCF78AFA10B14FF0FF30CAE78D
:1058F0009DF8000000F0100020B1FFF7BFF86FF036
:105900000100C0E7E2B2844B1B68D97A824B5B6826
:1059100018783B46FCF772FA10B14FF0FF30B2E74F
:1059200095FBF4F0401E30700020ACE701467A4849
:1059300080F82210002070477CB5054676494968FA
:10594000087801AB04220D21FCF758FA08B10720B2
:105950007CBD9DF80700C0F301109DF8041001F014
:10596000E00140EAE1008DF800009DF80700C0F377
:1059700081009DF8051001F0E00140EAE1008DF89A
:1059800001009DF8070000F003009DF8061001F0EB
:10599000E00140EAE1008DF8020000241CE01DF85F
:1059A000040018B9002045F8240013E05B4845F8CE
:1059B000240006E055F82400594905F057F845F849
:1059C00024001DF80400401EC0B20DF80400002899
:1059D000F0D100BF601CC4B2032CE0DB0020B7E7AD
:1059E0002DE9FE4F06460F4600256846FFF7A4FF47
:1059F000002442E056F8240057F82410A0EB010AD6
:105A0000BAF1000F01DB514601E0CAF1000108467E
:105A100004F0CCFF83464FF08F4104F095FE8046A2
:105A20005DF82400002104F051FF16D05DF8241029
:105A3000404604F089FE82464FF07E5105F01EF983
:105A4000814629F0004A3748416A504605F0DAF8A5
:105A500012D20120A04005430EE03248C169404601
:105A600004F0D0FF05D32F48016A404605F0CAF87C
:105A700002D20120A0400543641C032CBADB284657
:105A8000BDE8FE8F2DE9FC5F06460F460025224942
:105A90004968087801AB03220D21FCF7AFF910B17A
:105AA0000720BDE8FC9F9DF8040000F01F008DF862
:105AB00004009DF8050000F01F008DF805009DF81A
:105AC000060000F01F008DF80600002462E056F882
:105AD000240057F82410A0EB010BBBF1000F01DBF1
